1182201500000000TDUNDER MIFFLIN                           000000000                                                                    000000003000000000046000                                                                                          
2182201500000000T00000002W         PARTY2                                  00A000400000000010000F       JF                                                                                                                                               
2182201500000000T00000003A         PARTY3                                  00A000300000000020000F       FF                                                                                                                                               
2182201500000000T00000001R         PARTY                                   00A000350000000016000F       FF                                                                                                                                               
